{
  "contractName": "HealthInsurance",
  "abi": [
    {
      "inputs": [],
      "stateMutability": "nonpayable",
      "type": "constructor"
    },
    {
      "anonymous": false,
      "inputs": [
        {
          "indexed": false,
          "internalType": "uint256",
          "name": "claimId",
          "type": "uint256"
        },
        {
          "indexed": false,
          "internalType": "address",
          "name": "user",
          "type": "address"
        }
      ],
      "name": "ClaimApplied",
      "type": "event"
    },
    {
      "anonymous": false,
      "inputs": [
        {
          "indexed": false,
          "internalType": "uint256",
          "name": "claimId",
          "type": "uint256"
        }
      ],
      "name": "ClaimApproved",
      "type": "event"
    },
    {
      "anonymous": false,
      "inputs": [
        {
          "indexed": false,
          "internalType": "uint256",
          "name": "claimId",
          "type": "uint256"
        },
        {
          "indexed": false,
          "internalType": "bool",
          "name": "matched",
          "type": "bool"
        }
      ],
      "name": "ClaimAutoVerified",
      "type": "event"
    },
    {
      "anonymous": false,
      "inputs": [
        {
          "indexed": false,
          "internalType": "uint256",
          "name": "claimId",
          "type": "uint256"
        }
      ],
      "name": "ClaimRejected",
      "type": "event"
    },
    {
      "anonymous": false,
      "inputs": [
        {
          "indexed": false,
          "internalType": "address",
          "name": "hospital",
          "type": "address"
        }
      ],
      "name": "HospitalRegistered",
      "type": "event"
    },
    {
      "anonymous": false,
      "inputs": [
        {
          "indexed": false,
          "internalType": "uint256",
          "name": "reportId",
          "type": "uint256"
        },
        {
          "indexed": false,
          "internalType": "address",
          "name": "hospital",
          "type": "address"
        },
        {
          "indexed": false,
          "internalType": "address",
          "name": "user",
          "type": "address"
        }
      ],
      "name": "HospitalReportStored",
      "type": "event"
    },
    {
      "anonymous": false,
      "inputs": [
        {
          "indexed": false,
          "internalType": "uint256",
          "name": "claimId",
          "type": "uint256"
        }
      ],
      "name": "UserHashSubmitted",
      "type": "event"
    },
    {
      "inputs": [],
      "name": "claimCount",
      "outputs": [
        {
          "internalType": "uint256",
          "name": "",
          "type": "uint256"
        }
      ],
      "stateMutability": "view",
      "type": "function",
      "constant": true
    },
    {
      "inputs": [
        {
          "internalType": "uint256",
          "name": "",
          "type": "uint256"
        }
      ],
      "name": "claims",
      "outputs": [
        {
          "internalType": "uint256",
          "name": "id",
          "type": "uint256"
        },
        {
          "internalType": "address",
          "name": "user",
          "type": "address"
        },
        {
          "internalType": "bytes32",
          "name": "userHash",
          "type": "bytes32"
        },
        {
          "internalType": "bool",
          "name": "verified",
          "type": "bool"
        },
        {
          "internalType": "bool",
          "name": "approved",
          "type": "bool"
        },
        {
          "internalType": "bool",
          "name": "decided",
          "type": "bool"
        }
      ],
      "stateMutability": "view",
      "type": "function",
      "constant": true
    },
    {
      "inputs": [],
      "name": "insurer",
      "outputs": [
        {
          "internalType": "address",
          "name": "",
          "type": "address"
        }
      ],
      "stateMutability": "view",
      "type": "function",
      "constant": true
    },
    {
      "inputs": [
        {
          "internalType": "address",
          "name": "",
          "type": "address"
        }
      ],
      "name": "isHospital",
      "outputs": [
        {
          "internalType": "bool",
          "name": "",
          "type": "bool"
        }
      ],
      "stateMutability": "view",
      "type": "function",
      "constant": true
    },
    {
      "inputs": [],
      "name": "reportCount",
      "outputs": [
        {
          "internalType": "uint256",
          "name": "",
          "type": "uint256"
        }
      ],
      "stateMutability": "view",
      "type": "function",
      "constant": true
    },
    {
      "inputs": [
        {
          "internalType": "uint256",
          "name": "",
          "type": "uint256"
        }
      ],
      "name": "reports",
      "outputs": [
        {
          "internalType": "uint256",
          "name": "id",
          "type": "uint256"
        },
        {
          "internalType": "address",
          "name": "hospital",
          "type": "address"
        },
        {
          "internalType": "address",
          "name": "user",
          "type": "address"
        },
        {
          "internalType": "bytes32",
          "name": "hospitalHash",
          "type": "bytes32"
        }
      ],
      "stateMutability": "view",
      "type": "function",
      "constant": true
    },
    {
      "inputs": [
        {
          "internalType": "address",
          "name": "_hospital",
          "type": "address"
        }
      ],
      "name": "registerHospital",
      "outputs": [],
      "stateMutability": "nonpayable",
      "type": "function"
    },
    {
      "inputs": [
        {
          "internalType": "address",
          "name": "_user",
          "type": "address"
        },
        {
          "internalType": "bytes32",
          "name": "_reportHash",
          "type": "bytes32"
        }
      ],
      "name": "storeHospitalHash",
      "outputs": [],
      "stateMutability": "nonpayable",
      "type": "function"
    },
    {
      "inputs": [
        {
          "internalType": "uint256[]",
          "name": "_reportIds",
          "type": "uint256[]"
        }
      ],
      "name": "applyClaim",
      "outputs": [],
      "stateMutability": "nonpayable",
      "type": "function"
    },
    {
      "inputs": [
        {
          "internalType": "uint256",
          "name": "_claimId",
          "type": "uint256"
        },
        {
          "internalType": "bytes32",
          "name": "_userHash",
          "type": "bytes32"
        }
      ],
      "name": "submitUserHash",
      "outputs": [],
      "stateMutability": "nonpayable",
      "type": "function"
    },
    {
      "inputs": [
        {
          "internalType": "uint256",
          "name": "_claimId",
          "type": "uint256"
        }
      ],
      "name": "autoVerifyClaim",
      "outputs": [],
      "stateMutability": "nonpayable",
      "type": "function"
    },
    {
      "inputs": [
        {
          "internalType": "uint256",
          "name": "_claimId",
          "type": "uint256"
        },
        {
          "internalType": "bool",
          "name": "_approve",
          "type": "bool"
        }
      ],
      "name": "finalDecision",
      "outputs": [],
      "stateMutability": "nonpayable",
      "type": "function"
    },
    {
      "inputs": [
        {
          "internalType": "uint256",
          "name": "_claimId",
          "type": "uint256"
        }
      ],
      "name": "getClaimReports",
      "outputs": [
        {
          "internalType": "uint256[]",
          "name": "",
          "type": "uint256[]"
        }
      ],
      "stateMutability": "view",
      "type": "function",
      "constant": true
    }
  ],
  "bytecode": "0x608060405234801561001057600080fd5b50600080546001600160a01b03191633179055610e0b806100326000396000f3fe608060405234801561001057600080fd5b50600436106100cf5760003560e01c8063b2a755f91161008c578063c942adf711610066578063c942adf71461022b578063d474e5c21461029e578063dbc837c5146102b1578063dc7a8565146102dc57600080fd5b8063b2a755f9146101d2578063bdf6c673146101e5578063c5b998581461021857600080fd5b8063185c6f84146100d45780636244f252146100f05780637080fb8a14610105578063781edcb3146101255780638da4d3c914610138578063a888c2cd14610141575b600080fd5b6100dd60015481565b6040519081526020015b60405180910390f35b6101036100fe366004610bba565b6102ef565b005b610118610113366004610bef565b61043d565b6040516100e79190610c08565b610103610133366004610c4c565b6104a2565b6100dd60025481565b61019761014f366004610bef565b6004602081905260009182526040909120805460018201546003830154929093015490926001600160a01b0316919060ff808216916101008104821691620100009091041686565b604080519687526001600160a01b039095166020870152938501929092521515606084015215156080830152151560a082015260c0016100e7565b6101036101e0366004610c6e565b6105cb565b6102086101f3366004610cff565b60056020526000908152604090205460ff1681565b60405190151581526020016100e7565b610103610226366004610cff565b610773565b61026e610239366004610bef565b6003602081905260009182526040909120805460018201546002830154929093015490926001600160a01b0390811692169084565b6040516100e794939291909384526001600160a01b03928316602085015291166040830152606082015260800190565b6101036102ac366004610d21565b61089d565b6000546102c4906001600160a01b031681565b6040516001600160a01b0390911681526020016100e7565b6101036102ea366004610bef565b610a3e565b6000546001600160a01b031633146103225760405162461bcd60e51b815260040161031990610d4b565b60405180910390fd5b8160008111801561033557506002548111155b6103515760405162461bcd60e51b815260040161031990610d71565b60008381526004602081905260409091209081015462010000900460ff166103aa5760405162461bcd60e51b815260206004820152600c60248201526b15995c9a599e48199a5c9cdd60a21b6044820152606401610319565b600481018054841580156101000261ff001990921691909117909155610402576040518481527fd2d0ed0cccc8615643ade1eff3929a29ed8df75ebca85a3996e311c9b69e22899060200160405180910390a1610437565b6040518481527f2aa44a1bb19392ef6a2fd220d2b1649a6dc1bebbfa2a6f2c496e2d39a3339d0e906020015b60405180910390a15b50505050565b60008181526004602090815260409182902060020180548351818402810184019094528084526060939283018282801561049657602002820191906000526020600020905b815481526020019060010190808311610482575b50505050509050919050565b6000546001600160a01b031633146104cc5760405162461bcd60e51b815260040161031990610d4b565b816000811180156104df57506002548111155b6104fb5760405162461bcd60e51b815260040161031990610d71565b60008381526004602081905260409091209081015462010000900460ff161561055a5760405162461bcd60e51b8152602060048201526011602482015270105b1c9958591e481c1c9bd8d95cdcd959607a1b6044820152606401610319565b826105945760405162461bcd60e51b815260206004820152600a60248201526908adae0e8f240d0c2e6d60b31b6044820152606401610319565b600381018390556040518481527f5d6fc072f38b0106cfa72f9cd063fc920fb019d4a4d9d59ae5c2202754faceb19060200161042e565b806106055760405162461bcd60e51b815260206004820152600a6024820152694e6f207265706f72747360b01b6044820152606401610319565b60005b818110156106a157600083838381811061062457610624610d98565b6020908102929092013560008181526003909352604090922060020154919250506001600160a01b0316331461068e5760405162461bcd60e51b815260206004820152600f60248201526e139bdd081e5bdd5c881c995c1bdc9d608a1b6044820152606401610319565b508061069981610dae565b915050610608565b50600280549060006106b283610dae565b909155505060025460008181526004602052604081209182556001820180546001600160a01b031916331790555b8281101561073257816002018484838181106106fe576106fe610d98565b835460018101855560009485526020948590209190940292909201359190920155508061072a81610dae565b9150506106e0565b50600254604080519182523360208301527f3870f66c2242f43cbd492fe5b598f90a8024a9cee23730d69c1b0fdb8a7ab53e910160405180910390a1505050565b6000546001600160a01b0316331461079d5760405162461bcd60e51b815260040161031990610d4b565b6001600160a01b0381166107e55760405162461bcd60e51b815260206004820152600f60248201526e496e76616c6964206164647265737360881b6044820152606401610319565b6001600160a01b03811660009081526005602052604090205460ff16156108435760405162461bcd60e51b8152602060048201526012602482015271105b1c9958591e481c9959da5cdd195c995960721b6044820152606401610319565b6001600160a01b038116600081815260056020908152604091829020805460ff1916600117905590519182527f380355b6fe4f9755ddcef7c5c195edae45bdb34953a41d82386022f3cd5899f0910160405180910390a150565b3360009081526005602052604090205460ff166108ec5760405162461bcd60e51b815260206004820152600d60248201526c13db9b1e481a1bdcdc1a5d185b609a1b6044820152606401610319565b6001600160a01b0382166109315760405162461bcd60e51b815260206004820152600c60248201526b24b73b30b634b2103ab9b2b960a11b6044820152606401610319565b8061096b5760405162461bcd60e51b815260206004820152600a60248201526908adae0e8f240d0c2e6d60b31b6044820152606401610319565b6001805490600061097b83610dae565b909155505060408051608081018252600180548083523360208085018281526001600160a01b038981168789018181526060808a018c815260009889526003808852988c90209a518b5594518a8a0180549186166001600160a01b0319928316179055915160028b01805491909516921691909117909255915196909401959095559254855190815292830152928101919091527f19f2d6e00326f474427be8f948e5a0588a50e3c66f7090d21bc63862e919fad6910160405180910390a15050565b6000546001600160a01b03163314610a685760405162461bcd60e51b815260040161031990610d4b565b80600081118015610a7b57506002548111155b610a975760405162461bcd60e51b815260040161031990610d71565b60008281526004602052604090206003810154610aea5760405162461bcd60e51b8152602060048201526011602482015270557365722068617368206d697373696e6760781b6044820152606401610319565b600160005b6002830154811015610b5d576000836002018281548110610b1257610b12610d98565b906000526020600020015490508360030154600360008381526020019081526020016000206003015414610b4a576000925050610b5d565b5080610b5581610dae565b915050610aef565b5060048201805462ff0000198315151662ff00ff1990911617620100001790556040517f72caa7b099ddf26b468ecd1145aa0daf56178306221b6e7228a75c478351e25b9061042e90869084909182521515602082015260400190565b60008060408385031215610bcd57600080fd5b8235915060208301358015158114610be457600080fd5b809150509250929050565b600060208284031215610c0157600080fd5b5035919050565b6020808252825182820181905260009190848201906040850190845b81811015610c4057835183529284019291840191600101610c24565b50909695505050505050565b60008060408385031215610c5f57600080fd5b50508035926020909101359150565b60008060208385031215610c8157600080fd5b823567ffffffffffffffff80821115610c9957600080fd5b818501915085601f830112610cad57600080fd5b813581811115610cbc57600080fd5b8660208260051b8501011115610cd157600080fd5b60209290920196919550909350505050565b80356001600160a01b0381168114610cfa57600080fd5b919050565b600060208284031215610d1157600080fd5b610d1a82610ce3565b9392505050565b60008060408385031215610d3457600080fd5b610d3d83610ce3565b946020939093013593505050565b6020808252600c908201526b27b7363c9034b739bab932b960a11b604082015260600190565b6020808252600d908201526c496e76616c696420636c61696d60981b604082015260600190565b634e487b7160e01b600052603260045260246000fd5b600060018201610dce57634e487b7160e01b600052601160045260246000fd5b506001019056fea26469706673582212202a3d82e0f54d38138b36216c0543ce59d47d04befd3f42e8fe446fb2d2c3419b64736f6c63430008110033",
  "immutableReferences": {},
  "source": "// SPDX-License-Identifier: MIT\r\npragma solidity ^0.8.17;\r\n\r\ncontract HealthInsurance {\r\n\r\n    address public insurer;\r\n    uint256 public reportCount;\r\n    uint256 public claimCount;\r\n\r\n    constructor() {\r\n        insurer = msg.sender; // deployer is insurer\r\n    }\r\n\r\n    // ------------------ STRUCTS ------------------\r\n\r\n    struct Report {\r\n        uint256 id;\r\n        address hospital;\r\n        address user;\r\n        bytes32 hospitalHash;\r\n    }\r\n\r\n    struct Claim {\r\n        uint256 id;\r\n        address user;\r\n        uint256[] reportIds;\r\n        bytes32 userHash;\r\n        bool verified;\r\n        bool approved;\r\n        bool decided;\r\n    }\r\n\r\n    // ------------------ STORAGE ------------------\r\n\r\n    mapping(uint256 => Report) public reports;\r\n    mapping(uint256 => Claim) public claims;\r\n    mapping(address => bool) public isHospital;\r\n\r\n    // ------------------ MODIFIERS ------------------\r\n\r\n    modifier onlyInsurer() {\r\n        require(msg.sender == insurer, \"Only insurer\");\r\n        _;\r\n    }\r\n\r\n    modifier onlyHospital() {\r\n        require(isHospital[msg.sender], \"Only hospital\");\r\n        _;\r\n    }\r\n\r\n    modifier validClaim(uint256 _id) {\r\n        require(_id > 0 && _id <= claimCount, \"Invalid claim\");\r\n        _;\r\n    }\r\n\r\n    modifier validReport(uint256 _id) {\r\n        require(_id > 0 && _id <= reportCount, \"Invalid report\");\r\n        _;\r\n    }\r\n\r\n    // ------------------ EVENTS ------------------\r\n\r\n    event HospitalRegistered(address hospital);\r\n    event HospitalReportStored(uint256 reportId, address hospital, address user);\r\n    event ClaimApplied(uint256 claimId, address user);\r\n    event UserHashSubmitted(uint256 claimId);\r\n    event ClaimAutoVerified(uint256 claimId, bool matched);\r\n    event ClaimApproved(uint256 claimId);\r\n    event ClaimRejected(uint256 claimId);\r\n\r\n    // ------------------ INSURER ------------------\r\n\r\n    function registerHospital(address _hospital) external onlyInsurer {\r\n        require(_hospital != address(0), \"Invalid address\");\r\n        require(!isHospital[_hospital], \"Already registered\");\r\n\r\n        isHospital[_hospital] = true;\r\n        emit HospitalRegistered(_hospital);\r\n    }\r\n\r\n    // ------------------ HOSPITAL ------------------\r\n\r\n    function storeHospitalHash(\r\n        address _user,\r\n        bytes32 _reportHash\r\n    ) external onlyHospital {\r\n\r\n        require(_user != address(0), \"Invalid user\");\r\n        require(_reportHash != bytes32(0), \"Empty hash\");\r\n\r\n        reportCount++;\r\n\r\n        reports[reportCount] = Report(\r\n            reportCount,\r\n            msg.sender,\r\n            _user,\r\n            _reportHash\r\n        );\r\n\r\n        emit HospitalReportStored(reportCount, msg.sender, _user);\r\n    }\r\n\r\n    // ------------------ USER ------------------\r\n\r\n    function applyClaim(uint256[] calldata _reportIds) external {\r\n        require(_reportIds.length > 0, \"No reports\");\r\n\r\n        for (uint256 i = 0; i < _reportIds.length; i++) {\r\n            uint256 rid = _reportIds[i];\r\n            require(reports[rid].user == msg.sender, \"Not your report\");\r\n        }\r\n\r\n        claimCount++;\r\n\r\n        Claim storage c = claims[claimCount];\r\n        c.id = claimCount;\r\n        c.user = msg.sender;\r\n\r\n        for (uint256 i = 0; i < _reportIds.length; i++) {\r\n            c.reportIds.push(_reportIds[i]);\r\n        }\r\n\r\n        emit ClaimApplied(claimCount, msg.sender);\r\n    }\r\n\r\n    // ------------------ INSURER VERIFICATION ------------------\r\n\r\n    function submitUserHash(\r\n        uint256 _claimId,\r\n        bytes32 _userHash\r\n    ) external onlyInsurer validClaim(_claimId) {\r\n\r\n        Claim storage c = claims[_claimId];\r\n        require(!c.decided, \"Already processed\");\r\n        require(_userHash != bytes32(0), \"Empty hash\");\r\n\r\n        c.userHash = _userHash;\r\n\r\n        emit UserHashSubmitted(_claimId);\r\n    }\r\n\r\n    function autoVerifyClaim(uint256 _claimId)\r\n        external\r\n        onlyInsurer\r\n        validClaim(_claimId)\r\n    {\r\n        Claim storage c = claims[_claimId];\r\n        require(c.userHash != bytes32(0), \"User hash missing\");\r\n\r\n        bool matched = true;\r\n\r\n        for (uint256 i = 0; i < c.reportIds.length; i++) {\r\n            uint256 rid = c.reportIds[i];\r\n            if (reports[rid].hospitalHash != c.userHash) {\r\n                matched = false;\r\n                break;\r\n            }\r\n        }\r\n\r\n        c.verified = matched;\r\n        c.decided = true;\r\n\r\n        emit ClaimAutoVerified(_claimId, matched);\r\n    }\r\n\r\n    // ------------------ FINAL DECISION ------------------\r\n\r\n    function finalDecision(\r\n        uint256 _claimId,\r\n        bool _approve\r\n    ) external onlyInsurer validClaim(_claimId) {\r\n\r\n        Claim storage c = claims[_claimId];\r\n        require(c.decided, \"Verify first\");\r\n\r\n        c.approved = _approve;\r\n\r\n        if (_approve) {\r\n            emit ClaimApproved(_claimId);\r\n        } else {\r\n            emit ClaimRejected(_claimId);\r\n        }\r\n    }\r\n\r\n    // ------------------ HELPERS ------------------\r\n\r\n    function getClaimReports(uint256 _claimId)\r\n        external\r\n        view\r\n        returns (uint256[] memory)\r\n    {\r\n        return claims[_claimId].reportIds;\r\n    }\r\n}\r\n",
  "sourcePath": "C:\\Fraud-free-health-insurance\\blockchain\\contracts\\HealthInsurance.sol",
  "compiler": {
    "name": "solc",
    "version": "0.8.17+commit.8df45f5f.Emscripten.clang"
  },
  "schemaVersion": "3.4.13",
  "updatedAt": "2025-12-17T16:01:21.774Z",
  "networkType": "ethereum",
  "devdoc": {
    "kind": "dev",
    "methods": {},
    "version": 1
  },
  "userdoc": {
    "kind": "user",
    "methods": {},
    "version": 1
  }
}